{
  "address": "0x03960D31ffAE37AA0a7EC73e4F99a7cf69810d62",
  "abi": [
    {
      "inputs": [],
      "stateMutability": "nonpayable",
      "type": "constructor"
    },
    {
      "anonymous": false,
      "inputs": [
        {
          "indexed": false,
          "internalType": "string",
          "name": "ISBN",
          "type": "string"
        },
        {
          "indexed": false,
          "internalType": "string",
          "name": "title",
          "type": "string"
        },
        {
          "indexed": false,
          "internalType": "uint128",
          "name": "year",
          "type": "uint128"
        },
        {
          "indexed": false,
          "internalType": "string",
          "name": "author",
          "type": "string"
        }
      ],
      "name": "BookAdded",
      "type": "event"
    },
    {
      "anonymous": false,
      "inputs": [
        {
          "indexed": false,
          "internalType": "string",
          "name": "ISBN",
          "type": "string"
        }
      ],
      "name": "BookRemoved",
      "type": "event"
    },
    {
      "anonymous": false,
      "inputs": [
        {
          "indexed": false,
          "internalType": "string",
          "name": "ISBN",
          "type": "string"
        },
        {
          "indexed": false,
          "internalType": "string",
          "name": "title",
          "type": "string"
        },
        {
          "indexed": false,
          "internalType": "uint128",
          "name": "year",
          "type": "uint128"
        },
        {
          "indexed": false,
          "internalType": "string",
          "name": "author",
          "type": "string"
        }
      ],
      "name": "BookUpdated",
      "type": "event"
    },
    {
      "inputs": [],
      "name": "admin",
      "outputs": [
        {
          "internalType": "address",
          "name": "",
          "type": "address"
        }
      ],
      "stateMutability": "view",
      "type": "function"
    },
    {
      "inputs": [
        {
          "internalType": "string",
          "name": "",
          "type": "string"
        }
      ],
      "name": "books",
      "outputs": [
        {
          "internalType": "string",
          "name": "ISBN",
          "type": "string"
        },
        {
          "internalType": "string",
          "name": "title",
          "type": "string"
        },
        {
          "internalType": "uint128",
          "name": "year",
          "type": "uint128"
        },
        {
          "internalType": "string",
          "name": "author",
          "type": "string"
        }
      ],
      "stateMutability": "view",
      "type": "function"
    },
    {
      "inputs": [
        {
          "internalType": "string",
          "name": "_ISBN",
          "type": "string"
        }
      ],
      "name": "destroy",
      "outputs": [],
      "stateMutability": "nonpayable",
      "type": "function"
    },
    {
      "inputs": [
        {
          "internalType": "string",
          "name": "_ISBN",
          "type": "string"
        },
        {
          "internalType": "string",
          "name": "_title",
          "type": "string"
        },
        {
          "internalType": "uint128",
          "name": "_year",
          "type": "uint128"
        },
        {
          "internalType": "string",
          "name": "_author",
          "type": "string"
        }
      ],
      "name": "store",
      "outputs": [],
      "stateMutability": "nonpayable",
      "type": "function"
    },
    {
      "inputs": [
        {
          "internalType": "string",
          "name": "_ISBN",
          "type": "string"
        },
        {
          "internalType": "string",
          "name": "_title",
          "type": "string"
        },
        {
          "internalType": "uint128",
          "name": "_year",
          "type": "uint128"
        },
        {
          "internalType": "string",
          "name": "_author",
          "type": "string"
        }
      ],
      "name": "update",
      "outputs": [],
      "stateMutability": "nonpayable",
      "type": "function"
    }
  ],
  "transactionHash": "0x017ffee3728399e4e7d85427465f9eb0ec3202e88d00f05b3188836ac75937bf",
  "args": [],
  "numDeployments": 1,
  "solcInputHash": "aa66b1391cd97c9d0ffb0c086cc61ab1",
  "bytecode": "0x608060405234801561001057600080fd5b50600080546001600160a01b03191633179055610fc2806100326000396000f3fe608060405234801561001057600080fd5b50600436106100565760003560e01c8062d1db7b1461005b5780632b9dfe80146100705780636b9c3c7c1461009c5780637a4359be146100af578063f851a440146100c2575b600080fd5b61006e610069366004610a4b565b6100ed565b005b61008361007e366004610ae4565b610334565b6040516100939493929190610b71565b60405180910390f35b61006e6100aa366004610c0d565b61050e565b61006e6100bd366004610c4f565b61061f565b6000546100d5906001600160a01b031681565b6040516001600160a01b039091168152602001610093565b6000546001600160a01b031633146101205760405162461bcd60e51b815260040161011790610cfd565b60405180910390fd5b60008451116101685760405162461bcd60e51b81526020600482015260146024820152734953424e2063616e6e6f7420626520656d70747960601b6044820152606401610117565b60008351116101b15760405162461bcd60e51b81526020600482015260156024820152745469746c652063616e6e6f7420626520656d70747960581b6044820152606401610117565b60008151116101fb5760405162461bcd60e51b8152602060048201526016602482015275417574686f722063616e6e6f7420626520656d70747960501b6044820152606401610117565b60018460405161020b9190610d3f565b908152604051908190036020019020600201546001600160801b03166000036102465760405162461bcd60e51b815260040161011790610d5b565b6040518060800160405280858152602001848152602001836001600160801b03168152602001828152506001856040516102809190610d3f565b9081526040519081900360200190208151819061029d9082610e26565b50602082015160018201906102b29082610e26565b5060408201516002820180546001600160801b0319166001600160801b03909216919091179055606082015160038201906102ed9082610e26565b509050507fe274662391fa182baf2d6c90396c80fd0581fc2da97350205e93c2be6501e953848484846040516103269493929190610b71565b60405180910390a150505050565b805160208183018101805160018252928201919093012091528054819061035a90610d9d565b80601f016020809104026020016040519081016040528092919081815260200182805461038690610d9d565b80156103d35780601f106103a8576101008083540402835291602001916103d3565b820191906000526020600020905b8154815290600101906020018083116103b657829003601f168201915b5050505050908060010180546103e890610d9d565b80601f016020809104026020016040519081016040528092919081815260200182805461041490610d9d565b80156104615780601f1061043657610100808354040283529160200191610461565b820191906000526020600020905b81548152906001019060200180831161044457829003601f168201915b505050600284015460038501805494956001600160801b0390921694919350915061048b90610d9d565b80601f01602080910402602001604051908101604052809291908181526020018280546104b790610d9d565b80156105045780601f106104d957610100808354040283529160200191610504565b820191906000526020600020905b8154815290600101906020018083116104e757829003601f168201915b5050505050905084565b6000546001600160a01b031633146105385760405162461bcd60e51b815260040161011790610cfd565b6001828260405161054a929190610ee6565b908152604051908190036020019020600201546001600160801b03166000036105855760405162461bcd60e51b815260040161011790610d5b565b60018282604051610597929190610ee6565b90815260405190819003602001902060006105b28282610936565b6105c0600183016000610936565b6002820180546001600160801b03191690556105e0600383016000610936565b50507f2fbe5051f01f13ba3c0f1836a7495627a4aa5dc1bed39f88f01b531dc0c7756f8282604051610613929190610f1f565b60405180910390a15050565b6000546001600160a01b031633146106495760405162461bcd60e51b815260040161011790610cfd565b8561068d5760405162461bcd60e51b81526020600482015260146024820152734953424e2063616e6e6f7420626520656d70747960601b6044820152606401610117565b836106d25760405162461bcd60e51b81526020600482015260156024820152745469746c652063616e6e6f7420626520656d70747960581b6044820152606401610117565b806107185760405162461bcd60e51b8152602060048201526016602482015275417574686f722063616e6e6f7420626520656d70747960501b6044820152606401610117565b6001878760405161072a929190610ee6565b908152604051908190036020019020600201546001600160801b03161561079e5760405162461bcd60e51b815260206004820152602260248201527f426f6f6b20776974682074686973204953424e20616c72656164792065786973604482015261747360f01b6064820152608401610117565b604051806080016040528088888080601f016020809104026020016040519081016040528093929190818152602001838380828437600092019190915250505090825250604080516020601f8901819004810282018101909252878152918101919088908890819084018382808284376000920191909152505050908252506001600160801b03851660208083019190915260408051601f860183900483028101830182528581529201919085908590819084018382808284376000920191909152505050915250604051600190610879908a908a90610ee6565b908152604051908190036020019020815181906108969082610e26565b50602082015160018201906108ab9082610e26565b5060408201516002820180546001600160801b0319166001600160801b03909216919091179055606082015160038201906108e69082610e26565b509050507f1aeebe0ba89972c7d0b777486122c6cda32e01901a7ae64bbcc53dba16d7df8e878787878787876040516109259796959493929190610f33565b60405180910390a150505050505050565b50805461094290610d9d565b6000825580601f10610952575050565b601f0160209004906000526020600020908101906109709190610973565b50565b5b808211156109885760008155600101610974565b5090565b634e487b7160e01b600052604160045260246000fd5b600082601f8301126109b357600080fd5b813567ffffffffffffffff808211156109ce576109ce61098c565b604051601f8301601f19908116603f011681019082821181831017156109f6576109f661098c565b81604052838152866020858801011115610a0f57600080fd5b836020870160208301376000602085830101528094505050505092915050565b80356001600160801b0381168114610a4657600080fd5b919050565b60008060008060808587031215610a6157600080fd5b843567ffffffffffffffff80821115610a7957600080fd5b610a85888389016109a2565b95506020870135915080821115610a9b57600080fd5b610aa7888389016109a2565b9450610ab560408801610a2f565b93506060870135915080821115610acb57600080fd5b50610ad8878288016109a2565b91505092959194509250565b600060208284031215610af657600080fd5b813567ffffffffffffffff811115610b0d57600080fd5b610b19848285016109a2565b949350505050565b60005b83811015610b3c578181015183820152602001610b24565b50506000910152565b60008151808452610b5d816020860160208601610b21565b601f01601f19169290920160200192915050565b608081526000610b846080830187610b45565b8281036020840152610b968187610b45565b90506001600160801b03851660408401528281036060840152610bb98185610b45565b979650505050505050565b60008083601f840112610bd657600080fd5b50813567ffffffffffffffff811115610bee57600080fd5b602083019150836020828501011115610c0657600080fd5b9250929050565b60008060208385031215610c2057600080fd5b823567ffffffffffffffff811115610c3757600080fd5b610c4385828601610bc4565b90969095509350505050565b60008060008060008060006080888a031215610c6a57600080fd5b873567ffffffffffffffff80821115610c8257600080fd5b610c8e8b838c01610bc4565b909950975060208a0135915080821115610ca757600080fd5b610cb38b838c01610bc4565b9097509550859150610cc760408b01610a2f565b945060608a0135915080821115610cdd57600080fd5b50610cea8a828b01610bc4565b989b979a50959850939692959293505050565b60208082526022908201527f4f6e6c792061646d696e2063616e20706572666f726d2074686973206163746960408201526137b760f11b606082015260800190565b60008251610d51818460208701610b21565b9190910192915050565b60208082526022908201527f426f6f6b20776974682074686973204953424e20646f6573206e6f74206578696040820152611cdd60f21b606082015260800190565b600181811c90821680610db157607f821691505b602082108103610dd157634e487b7160e01b600052602260045260246000fd5b50919050565b601f821115610e2157600081815260208120601f850160051c81016020861015610dfe5750805b601f850160051c820191505b81811015610e1d57828155600101610e0a565b5050505b505050565b815167ffffffffffffffff811115610e4057610e4061098c565b610e5481610e4e8454610d9d565b84610dd7565b602080601f831160018114610e895760008415610e715750858301515b600019600386901b1c1916600185901b178555610e1d565b600085815260208120601f198616915b82811015610eb857888601518255948401946001909101908401610e99565b5085821015610ed65787850151600019600388901b60f8161c191681555b5050505050600190811b01905550565b8183823760009101908152919050565b81835281816020850137506000828201602090810191909152601f909101601f19169091010190565b602081526000610b19602083018486610ef6565b608081526000610f4760808301898b610ef6565b8281036020840152610f5a81888a610ef6565b90506001600160801b03861660408401528281036060840152610f7e818587610ef6565b9a995050505050505050505056fea2646970667358221220235776a37a9999bf79062fe737b2342f535dc6129e9eb6f8538893796efef83864736f6c63430008130033",
  "devdoc": {
    "kind": "dev",
    "methods": {},
    "version": 1
  },
  "userdoc": {
    "kind": "user",
    "methods": {},
    "version": 1
  },
  "storageLayout": {
    "storage": [
      {
        "astId": 3,
        "contract": "contracts/anang42/Perpustakaan.sol:Perpustakaan",
        "label": "admin",
        "offset": 0,
        "slot": "0",
        "type": "t_address"
      },
      {
        "astId": 17,
        "contract": "contracts/anang42/Perpustakaan.sol:Perpustakaan",
        "label": "books",
        "offset": 0,
        "slot": "1",
        "type": "t_mapping(t_string_memory_ptr,t_struct(Book)12_storage)"
      }
    ],
    "types": {
      "t_address": {
        "encoding": "inplace",
        "label": "address",
        "numberOfBytes": "20"
      },
      "t_mapping(t_string_memory_ptr,t_struct(Book)12_storage)": {
        "encoding": "mapping",
        "key": "t_string_memory_ptr",
        "label": "mapping(string => struct Perpustakaan.Book)",
        "numberOfBytes": "32",
        "value": "t_struct(Book)12_storage"
      },
      "t_string_memory_ptr": {
        "encoding": "bytes",
        "label": "string",
        "numberOfBytes": "32"
      },
      "t_string_storage": {
        "encoding": "bytes",
        "label": "string",
        "numberOfBytes": "32"
      },
      "t_struct(Book)12_storage": {
        "encoding": "inplace",
        "label": "struct Perpustakaan.Book",
        "members": [
          {
            "astId": 5,
            "contract": "contracts/anang42/Perpustakaan.sol:Perpustakaan",
            "label": "ISBN",
            "offset": 0,
            "slot": "0",
            "type": "t_string_storage"
          },
          {
            "astId": 7,
            "contract": "contracts/anang42/Perpustakaan.sol:Perpustakaan",
            "label": "title",
            "offset": 0,
            "slot": "1",
            "type": "t_string_storage"
          },
          {
            "astId": 9,
            "contract": "contracts/anang42/Perpustakaan.sol:Perpustakaan",
            "label": "year",
            "offset": 0,
            "slot": "2",
            "type": "t_uint128"
          },
          {
            "astId": 11,
            "contract": "contracts/anang42/Perpustakaan.sol:Perpustakaan",
            "label": "author",
            "offset": 0,
            "slot": "3",
            "type": "t_string_storage"
          }
        ],
        "numberOfBytes": "128"
      },
      "t_uint128": {
        "encoding": "inplace",
        "label": "uint128",
        "numberOfBytes": "16"
      }
    }
  }
}